{
  "contractName": "Attendance",
  "abi": [
    {
      "inputs": [],
      "stateMutability": "nonpayable",
      "type": "constructor"
    },
    {
      "anonymous": false,
      "inputs": [
        {
          "indexed": false,
          "internalType": "address",
          "name": "student",
          "type": "address"
        },
        {
          "indexed": false,
          "internalType": "uint256",
          "name": "classId",
          "type": "uint256"
        },
        {
          "indexed": false,
          "internalType": "uint256",
          "name": "date",
          "type": "uint256"
        },
        {
          "indexed": false,
          "internalType": "string",
          "name": "status",
          "type": "string"
        }
      ],
      "name": "AttendanceMarked",
      "type": "event"
    },
    {
      "anonymous": false,
      "inputs": [
        {
          "indexed": false,
          "internalType": "uint256",
          "name": "classId",
          "type": "uint256"
        },
        {
          "indexed": false,
          "internalType": "string",
          "name": "name",
          "type": "string"
        },
        {
          "indexed": false,
          "internalType": "address",
          "name": "teacher",
          "type": "address"
        }
      ],
      "name": "ClassCreated",
      "type": "event"
    },
    {
      "anonymous": false,
      "inputs": [
        {
          "indexed": false,
          "internalType": "address",
          "name": "student",
          "type": "address"
        }
      ],
      "name": "StudentRegistered",
      "type": "event"
    },
    {
      "anonymous": false,
      "inputs": [
        {
          "indexed": false,
          "internalType": "address",
          "name": "teacher",
          "type": "address"
        }
      ],
      "name": "TeacherAdded",
      "type": "event"
    },
    {
      "inputs": [],
      "name": "admin",
      "outputs": [
        {
          "internalType": "address",
          "name": "",
          "type": "address"
        }
      ],
      "stateMutability": "view",
      "type": "function",
      "constant": true
    },
    {
      "inputs": [
        {
          "internalType": "address",
          "name": "",
          "type": "address"
        },
        {
          "internalType": "uint256",
          "name": "",
          "type": "uint256"
        },
        {
          "internalType": "uint256",
          "name": "",
          "type": "uint256"
        }
      ],
      "name": "attendanceRecords",
      "outputs": [
        {
          "internalType": "uint256",
          "name": "date",
          "type": "uint256"
        },
        {
          "internalType": "uint256",
          "name": "classId",
          "type": "uint256"
        },
        {
          "internalType": "bool",
          "name": "present",
          "type": "bool"
        },
        {
          "internalType": "string",
          "name": "status",
          "type": "string"
        }
      ],
      "stateMutability": "view",
      "type": "function",
      "constant": true
    },
    {
      "inputs": [],
      "name": "classCount",
      "outputs": [
        {
          "internalType": "uint256",
          "name": "",
          "type": "uint256"
        }
      ],
      "stateMutability": "view",
      "type": "function",
      "constant": true
    },
    {
      "inputs": [
        {
          "internalType": "uint256",
          "name": "",
          "type": "uint256"
        }
      ],
      "name": "classes",
      "outputs": [
        {
          "internalType": "string",
          "name": "name",
          "type": "string"
        },
        {
          "internalType": "uint256",
          "name": "id",
          "type": "uint256"
        },
        {
          "internalType": "address",
          "name": "teacher",
          "type": "address"
        },
        {
          "internalType": "bool",
          "name": "isActive",
          "type": "bool"
        }
      ],
      "stateMutability": "view",
      "type": "function",
      "constant": true
    },
    {
      "inputs": [
        {
          "internalType": "address",
          "name": "",
          "type": "address"
        }
      ],
      "name": "isStudent",
      "outputs": [
        {
          "internalType": "bool",
          "name": "",
          "type": "bool"
        }
      ],
      "stateMutability": "view",
      "type": "function",
      "constant": true
    },
    {
      "inputs": [
        {
          "internalType": "address",
          "name": "",
          "type": "address"
        }
      ],
      "name": "isTeacher",
      "outputs": [
        {
          "internalType": "bool",
          "name": "",
          "type": "bool"
        }
      ],
      "stateMutability": "view",
      "type": "function",
      "constant": true
    },
    {
      "inputs": [
        {
          "internalType": "address",
          "name": "",
          "type": "address"
        },
        {
          "internalType": "uint256",
          "name": "",
          "type": "uint256"
        }
      ],
      "name": "studentClasses",
      "outputs": [
        {
          "internalType": "uint256",
          "name": "",
          "type": "uint256"
        }
      ],
      "stateMutability": "view",
      "type": "function",
      "constant": true
    },
    {
      "inputs": [
        {
          "internalType": "address",
          "name": "",
          "type": "address"
        },
        {
          "internalType": "uint256",
          "name": "",
          "type": "uint256"
        }
      ],
      "name": "teacherClasses",
      "outputs": [
        {
          "internalType": "uint256",
          "name": "",
          "type": "uint256"
        }
      ],
      "stateMutability": "view",
      "type": "function",
      "constant": true
    },
    {
      "inputs": [
        {
          "internalType": "address",
          "name": "_teacher",
          "type": "address"
        }
      ],
      "name": "addTeacher",
      "outputs": [],
      "stateMutability": "nonpayable",
      "type": "function"
    },
    {
      "inputs": [
        {
          "internalType": "address",
          "name": "_teacher",
          "type": "address"
        }
      ],
      "name": "removeTeacher",
      "outputs": [],
      "stateMutability": "nonpayable",
      "type": "function"
    },
    {
      "inputs": [
        {
          "internalType": "address",
          "name": "_student",
          "type": "address"
        }
      ],
      "name": "registerStudent",
      "outputs": [],
      "stateMutability": "nonpayable",
      "type": "function"
    },
    {
      "inputs": [
        {
          "internalType": "string",
          "name": "_name",
          "type": "string"
        }
      ],
      "name": "createClass",
      "outputs": [
        {
          "internalType": "uint256",
          "name": "",
          "type": "uint256"
        }
      ],
      "stateMutability": "nonpayable",
      "type": "function"
    },
    {
      "inputs": [
        {
          "internalType": "address",
          "name": "_student",
          "type": "address"
        },
        {
          "internalType": "uint256",
          "name": "_classId",
          "type": "uint256"
        }
      ],
      "name": "enrollStudentInClass",
      "outputs": [],
      "stateMutability": "nonpayable",
      "type": "function"
    },
    {
      "inputs": [
        {
          "internalType": "address",
          "name": "_student",
          "type": "address"
        },
        {
          "internalType": "uint256",
          "name": "_classId",
          "type": "uint256"
        },
        {
          "internalType": "uint256",
          "name": "_date",
          "type": "uint256"
        },
        {
          "internalType": "string",
          "name": "_status",
          "type": "string"
        }
      ],
      "name": "markAttendance",
      "outputs": [],
      "stateMutability": "nonpayable",
      "type": "function"
    },
    {
      "inputs": [
        {
          "internalType": "address",
          "name": "_student",
          "type": "address"
        },
        {
          "internalType": "uint256",
          "name": "_classId",
          "type": "uint256"
        }
      ],
      "name": "getStudentAttendance",
      "outputs": [
        {
          "components": [
            {
              "internalType": "uint256",
              "name": "date",
              "type": "uint256"
            },
            {
              "internalType": "uint256",
              "name": "classId",
              "type": "uint256"
            },
            {
              "internalType": "bool",
              "name": "present",
              "type": "bool"
            },
            {
              "internalType": "string",
              "name": "status",
              "type": "string"
            }
          ],
          "internalType": "struct Attendance.Record[]",
          "name": "",
          "type": "tuple[]"
        }
      ],
      "stateMutability": "view",
      "type": "function",
      "constant": true
    },
    {
      "inputs": [
        {
          "internalType": "address",
          "name": "_teacher",
          "type": "address"
        }
      ],
      "name": "getTeacherClasses",
      "outputs": [
        {
          "internalType": "uint256[]",
          "name": "",
          "type": "uint256[]"
        }
      ],
      "stateMutability": "view",
      "type": "function",
      "constant": true
    },
    {
      "inputs": [
        {
          "internalType": "address",
          "name": "_student",
          "type": "address"
        }
      ],
      "name": "getStudentClasses",
      "outputs": [
        {
          "internalType": "uint256[]",
          "name": "",
          "type": "uint256[]"
        }
      ],
      "stateMutability": "view",
      "type": "function",
      "constant": true
    },
    {
      "inputs": [
        {
          "internalType": "uint256",
          "name": "_classId",
          "type": "uint256"
        }
      ],
      "name": "getClassInfo",
      "outputs": [
        {
          "components": [
            {
              "internalType": "string",
              "name": "name",
              "type": "string"
            },
            {
              "internalType": "uint256",
              "name": "id",
              "type": "uint256"
            },
            {
              "internalType": "address",
              "name": "teacher",
              "type": "address"
            },
            {
              "internalType": "bool",
              "name": "isActive",
              "type": "bool"
            }
          ],
          "internalType": "struct Attendance.Class",
          "name": "",
          "type": "tuple"
        }
      ],
      "stateMutability": "view",
      "type": "function",
      "constant": true
    }
  ],
  "bytecode": "0x6080604052600060035534801561001557600080fd5b50336000806101000a81548173ffffffffffffffffffffffffffffffffffffffff021916908373ffffffffffffffffffffffffffffffffffffffff160217905550612318806100656000396000f3fe608060405234801561001057600080fd5b50600436106101165760003560e01c80638a7dc32b116100a2578063c7573e8211610071578063c7573e821461032c578063d61b9ac214610348578063ecc5766b14610378578063f4e5ca02146103ab578063f851a440146103db57610116565b80638a7dc32b1461027e578063ab996317146102ae578063aec37eb3146102cc578063bf2b59f1146102fc57610116565b8063540bfb72116100e9578063540bfb721461019f57806369fea61d146101cf578063817dbe9f146101eb57806382f7d3921461021e57806387f36d1c1461024e57610116565b806323e3b6e21461011b578063306985d7146101375780633bc6e3091461016757806352ff684614610183575b600080fd5b61013560048036038101906101309190611717565b6103f9565b005b610151600480360381019061014c91906116ee565b610621565b60405161015e9190611e16565b60405180910390f35b610181600480360381019061017c91906116ee565b6106b8565b005b61019d600480360381019061019891906116ee565b6107d7565b005b6101b960048036038101906101b4919061185e565b6108c0565b6040516101c69190611f3f565b60405180910390f35b6101e960048036038101906101e491906117a2565b6109fa565b005b6102056004803603810190610200919061185e565b610d80565b6040516102159493929190611e53565b60405180910390f35b610238600480360381019061023391906116ee565b610e65565b6040516102459190611e38565b60405180910390f35b61026860048036038101906102639190611717565b610e85565b6040516102759190611df4565b60405180910390f35b6102986004803603810190610293919061181d565b610ff6565b6040516102a59190611f61565b60405180910390f35b6102b6611227565b6040516102c39190611f61565b60405180910390f35b6102e660048036038101906102e191906116ee565b61122d565b6040516102f39190611e38565b60405180910390f35b61031660048036038101906103119190611717565b61124d565b6040516103239190611f61565b60405180910390f35b610346600480360381019061034191906116ee565b61127e565b005b610362600480360381019061035d9190611717565b61139e565b60405161036f9190611f61565b60405180910390f35b610392600480360381019061038d9190611753565b6113cf565b6040516103a29493929190611fba565b60405180910390f35b6103c560048036038101906103c091906116ee565b6114be565b6040516103d29190611e16565b60405180910390f35b6103e3611555565b6040516103f09190611d8d565b60405180910390f35b80600160003373ffffffffffffffffffffffffffffffffffffffff1673ffffffffffffffffffffffffffffffffffffffff16815260200190815260200160002060009054906101000a900460ff16610486576040517f08c379a000000000000000000000000000000000000000000000000000000000815260040161047d90611edf565b60405180910390fd5b3373ffffffffffffffffffffffffffffffffffffffff166004600083815260200190815260200160002060020160009054906101000a900473ffffffffffffffffffffffffffffffffffffffff1673ffffffffffffffffffffffffffffffffffffffff161461052a576040517f08c379a000000000000000000000000000000000000000000000000000000000815260040161052190611e9f565b60405180910390fd5b600260008473ffffffffffffffffffffffffffffffffffffffff1673ffffffffffffffffffffffffffffffffffffffff16815260200190815260200160002060009054906101000a900460ff166105b6576040517f08c379a00000000000000000000000000000000000000000000000000000000081526004016105ad90611eff565b60405180910390fd5b600660008473ffffffffffffffffffffffffffffffffffffffff1673ffffffffffffffffffffffffffffffffffffffff168152602001908152602001600020829080600181540180825580915050600190039060005260206000200160009091909190915055505050565b6060600660008373ffffffffffffffffffffffffffffffffffffffff1673ffffffffffffffffffffffffffffffffffffffff1681526020019081526020016000208054806020026020016040519081016040528092919081815260200182805480156106ac57602002820191906000526020600020905b815481526020019060010190808311610698575b50505050509050919050565b60008054906101000a900473ffffffffffffffffffffffffffffffffffffffff1673ffffffffffffffffffffffffffffffffffffffff163373ffffffffffffffffffffffffffffffffffffffff1614610746576040517f08c379a000000000000000000000000000000000000000000000000000000000815260040161073d90611f1f565b60405180910390fd5b60018060008373ffffffffffffffffffffffffffffffffffffffff1673ffffffffffffffffffffffffffffffffffffffff16815260200190815260200160002060006101000a81548160ff0219169083151502179055507f04e1c63d2b2fafca3496ea9c3f23b77835b9a91f5d74802ced76b7f929b3265e816040516107cc9190611d8d565b60405180910390a150565b60008054906101000a900473ffffffffffffffffffffffffffffffffffffffff1673ffffffffffffffffffffffffffffffffffffffff163373ffffffffffffffffffffffffffffffffffffffff1614610865576040517f08c379a000000000000000000000000000000000000000000000000000000000815260040161085c90611f1f565b60405180910390fd5b6000600160008373ffffffffffffffffffffffffffffffffffffffff1673ffffffffffffffffffffffffffffffffffffffff16815260200190815260200160002060006101000a81548160ff02191690831515021790555050565b6108c8611579565b600460008381526020019081526020016000206040518060800160405290816000820180546108f69061219b565b80601f01602080910402602001604051908101604052809291908181526020018280546109229061219b565b801561096f5780601f106109445761010080835404028352916020019161096f565b820191906000526020600020905b81548152906001019060200180831161095257829003601f168201915b50505050508152602001600182015481526020016002820160009054906101000a900473ffffffffffffffffffffffffffffffffffffffff1673ffffffffffffffffffffffffffffffffffffffff1673ffffffffffffffffffffffffffffffffffffffff1681526020016002820160149054906101000a900460ff1615151515815250509050919050565b82600160003373ffffffffffffffffffffffffffffffffffffffff1673ffffffffffffffffffffffffffffffffffffffff16815260200190815260200160002060009054906101000a900460ff16610a87576040517f08c379a0000000000000000000000000000000000000000000000000000000008152600401610a7e90611edf565b60405180910390fd5b3373ffffffffffffffffffffffffffffffffffffffff166004600083815260200190815260200160002060020160009054906101000a900473ffffffffffffffffffffffffffffffffffffffff1673ffffffffffffffffffffffffffffffffffffffff1614610b2b576040517f08c379a0000000000000000000000000000000000000000000000000000000008152600401610b2290611e9f565b60405180910390fd5b6000825111610b6f576040517f08c379a0000000000000000000000000000000000000000000000000000000008152600401610b6690611ebf565b60405180910390fd5b600260008673ffffffffffffffffffffffffffffffffffffffff1673ffffffffffffffffffffffffffffffffffffffff16815260200190815260200160002060009054906101000a900460ff16610bfb576040517f08c379a0000000000000000000000000000000000000000000000000000000008152600401610bf290611eff565b60405180910390fd5b6000604051602001610c0c90611d78565b6040516020818303038152906040528051906020012083604051602001610c339190611d61565b60405160208183030381529060405280519060200120149050600760008773ffffffffffffffffffffffffffffffffffffffff1673ffffffffffffffffffffffffffffffffffffffff168152602001908152602001600020600086815260200190815260200160002060405180608001604052808681526020018781526020018315158152602001858152509080600181540180825580915050600190039060005260206000209060040201600090919091909150600082015181600001556020820151816001015560408201518160020160006101000a81548160ff0219169083151502179055506060820151816003019080519060200190610d389291906115b9565b5050507feb5c8472776497cbbdf3228630f586db47d32132656297b1358c8add76ae40dc86868686604051610d709493929190611da8565b60405180910390a1505050505050565b6004602052806000526040600020600091509050806000018054610da39061219b565b80601f0160208091040260200160405190810160405280929190818152602001828054610dcf9061219b565b8015610e1c5780601f10610df157610100808354040283529160200191610e1c565b820191906000526020600020905b815481529060010190602001808311610dff57829003601f168201915b5050505050908060010154908060020160009054906101000a900473ffffffffffffffffffffffffffffffffffffffff16908060020160149054906101000a900460ff16905084565b60026020528060005260406000206000915054906101000a900460ff1681565b6060600760008473ffffffffffffffffffffffffffffffffffffffff1673ffffffffffffffffffffffffffffffffffffffff1681526020019081526020016000206000838152602001908152602001600020805480602002602001604051908101604052809291908181526020016000905b82821015610fea578382906000526020600020906004020160405180608001604052908160008201548152602001600182015481526020016002820160009054906101000a900460ff16151515158152602001600382018054610f599061219b565b80601f0160208091040260200160405190810160405280929190818152602001828054610f859061219b565b8015610fd25780601f10610fa757610100808354040283529160200191610fd2565b820191906000526020600020905b815481529060010190602001808311610fb557829003601f168201915b50505050508152505081526020019060010190610ef7565b50505050905092915050565b6000600160003373ffffffffffffffffffffffffffffffffffffffff1673ffffffffffffffffffffffffffffffffffffffff16815260200190815260200160002060009054906101000a900460ff16611084576040517f08c379a000000000000000000000000000000000000000000000000000000000815260040161107b90611edf565b60405180910390fd5b600060036000815480929190611099906121cd565b91905055905060405180608001604052808481526020018281526020013373ffffffffffffffffffffffffffffffffffffffff168152602001600115158152506004600083815260200190815260200160002060008201518160000190805190602001906111089291906115b9565b506020820151816001015560408201518160020160006101000a81548173ffffffffffffffffffffffffffffffffffffffff021916908373ffffffffffffffffffffffffffffffffffffffff16021790555060608201518160020160146101000a81548160ff021916908315150217905550905050600560003373ffffffffffffffffffffffffffffffffffffffff1673ffffffffffffffffffffffffffffffffffffffff1681526020019081526020016000208190806001815401808255809150506001900390600052602060002001600090919091909150557fc3ae16060c7848ac9fda075de776290091a5c18dc2937b3673f215fe8fad3c0d81843360405161121693929190611f7c565b60405180910390a180915050919050565b60035481565b60016020528060005260406000206000915054906101000a900460ff1681565b6006602052816000526040600020818154811061126957600080fd5b90600052602060002001600091509150505481565b60008054906101000a900473ffffffffffffffffffffffffffffffffffffffff1673ffffffffffffffffffffffffffffffffffffffff163373ffffffffffffffffffffffffffffffffffffffff161461130c576040517f08c379a000000000000000000000000000000000000000000000000000000000815260040161130390611f1f565b60405180910390fd5b6001600260008373ffffffffffffffffffffffffffffffffffffffff1673ffffffffffffffffffffffffffffffffffffffff16815260200190815260200160002060006101000a81548160ff0219169083151502179055507f413281c709cf2c555b5d6d90e43f841b9ed7d34daa82e221aedbb3773082fcc8816040516113939190611d8d565b60405180910390a150565b600560205281600052604060002081815481106113ba57600080fd5b90600052602060002001600091509150505481565b600760205282600052604060002060205281600052604060002081815481106113f757600080fd5b906000526020600020906004020160009250925050508060000154908060010154908060020160009054906101000a900460ff169080600301805461143b9061219b565b80601f01602080910402602001604051908101604052809291908181526020018280546114679061219b565b80156114b45780601f10611489576101008083540402835291602001916114b4565b820191906000526020600020905b81548152906001019060200180831161149757829003601f168201915b5050505050905084565b6060600560008373ffffffffffffffffffffffffffffffffffffffff1673ffffffffffffffffffffffffffffffffffffffff16815260200190815260200160002080548060200260200160405190810160405280929190818152602001828054801561154957602002820191906000526020600020905b815481526020019060010190808311611535575b50505050509050919050565b60008054906101000a900473ffffffffffffffffffffffffffffffffffffffff1681565b60405180608001604052806060815260200160008152602001600073ffffffffffffffffffffffffffffffffffffffff1681526020016000151581525090565b8280546115c59061219b565b90600052602060002090601f0160209004810192826115e7576000855561162e565b82601f1061160057805160ff191683800117855561162e565b8280016001018555821561162e579182015b8281111561162d578251825591602001919060010190611612565b5b50905061163b919061163f565b5090565b5b80821115611658576000816000905550600101611640565b5090565b600061166f61166a84612037565b612006565b90508281526020810184848401111561168757600080fd5b611692848285612159565b509392505050565b6000813590506116a9816122b4565b92915050565b600082601f8301126116c057600080fd5b81356116d084826020860161165c565b91505092915050565b6000813590506116e8816122cb565b92915050565b60006020828403121561170057600080fd5b600061170e8482850161169a565b91505092915050565b6000806040838503121561172a57600080fd5b60006117388582860161169a565b9250506020611749858286016116d9565b9150509250929050565b60008060006060848603121561176857600080fd5b60006117768682870161169a565b9350506020611787868287016116d9565b9250506040611798868287016116d9565b9150509250925092565b600080600080608085870312156117b857600080fd5b60006117c68782880161169a565b94505060206117d7878288016116d9565b93505060406117e8878288016116d9565b925050606085013567ffffffffffffffff81111561180557600080fd5b611811878288016116af565b91505092959194509250565b60006020828403121561182f57600080fd5b600082013567ffffffffffffffff81111561184957600080fd5b611855848285016116af565b91505092915050565b60006020828403121561187057600080fd5b600061187e848285016116d9565b91505092915050565b60006118938383611ce0565b905092915050565b60006118a78383611d43565b60208301905092915050565b6118bc81612111565b82525050565b6118cb81612111565b82525050565b60006118dc82612087565b6118e681856120c2565b9350836020820285016118f885612067565b8060005b8581101561193457848403895281516119158582611887565b9450611920836120a8565b925060208a019950506001810190506118fc565b50829750879550505050505092915050565b600061195182612092565b61195b81856120d3565b935061196683612077565b8060005b8381101561199757815161197e888261189b565b9750611989836120b5565b92505060018101905061196a565b5085935050505092915050565b6119ad81612123565b82525050565b6119bc81612123565b82525050565b60006119cd8261209d565b6119d781856120e4565b93506119e7818560208601612168565b6119f0816122a3565b840191505092915050565b6000611a068261209d565b611a1081856120f5565b9350611a20818560208601612168565b611a29816122a3565b840191505092915050565b6000611a3f8261209d565b611a498185612106565b9350611a59818560208601612168565b80840191505092915050565b6000611a726025836120f5565b91507f596f7520617265206e6f74207468652074656163686572206f6620746869732060008301527f636c6173730000000000000000000000000000000000000000000000000000006020830152604082019050919050565b6000611ad8600783612106565b91507f70726573656e74000000000000000000000000000000000000000000000000006000830152600782019050919050565b6000611b186016836120f5565b91507f5374617475732063616e6e6f7420626520656d707479000000000000000000006000830152602082019050919050565b6000611b586025836120f5565b91507f4f6e6c792074656163686572732063616e20706572666f726d2074686973206160008301527f6374696f6e0000000000000000000000000000000000000000000000000000006020830152604082019050919050565b6000611bbe6023836120f5565b91507f41646472657373206973206e6f7420612072656769737465726564207374756460008301527f656e7400000000000000000000000000000000000000000000000000000000006020830152604082019050919050565b6000611c246022836120f5565b91507f4f6e6c792061646d696e2063616e20706572666f726d2074686973206163746960008301527f6f6e0000000000000000000000000000000000000000000000000000000000006020830152604082019050919050565b60006080830160008301518482036000860152611c9a82826119c2565b9150506020830151611caf6020860182611d43565b506040830151611cc260408601826118b3565b506060830151611cd560608601826119a4565b508091505092915050565b6000608083016000830151611cf86000860182611d43565b506020830151611d0b6020860182611d43565b506040830151611d1e60408601826119a4565b5060608301518482036060860152611d3682826119c2565b9150508091505092915050565b611d4c8161214f565b82525050565b611d5b8161214f565b82525050565b6000611d6d8284611a34565b915081905092915050565b6000611d8382611acb565b9150819050919050565b6000602082019050611da260008301846118c2565b92915050565b6000608082019050611dbd60008301876118c2565b611dca6020830186611d52565b611dd76040830185611d52565b8181036060830152611de981846119fb565b905095945050505050565b60006020820190508181036000830152611e0e81846118d1565b905092915050565b60006020820190508181036000830152611e308184611946565b905092915050565b6000602082019050611e4d60008301846119b3565b92915050565b60006080820190508181036000830152611e6d81876119fb565b9050611e7c6020830186611d52565b611e8960408301856118c2565b611e9660608301846119b3565b95945050505050565b60006020820190508181036000830152611eb881611a65565b9050919050565b60006020820190508181036000830152611ed881611b0b565b9050919050565b60006020820190508181036000830152611ef881611b4b565b9050919050565b60006020820190508181036000830152611f1881611bb1565b9050919050565b60006020820190508181036000830152611f3881611c17565b9050919050565b60006020820190508181036000830152611f598184611c7d565b905092915050565b6000602082019050611f766000830184611d52565b92915050565b6000606082019050611f916000830186611d52565b8181036020830152611fa381856119fb565b9050611fb260408301846118c2565b949350505050565b6000608082019050611fcf6000830187611d52565b611fdc6020830186611d52565b611fe960408301856119b3565b8181036060830152611ffb81846119fb565b905095945050505050565b6000604051905081810181811067ffffffffffffffff8211171561202d5761202c612274565b5b8060405250919050565b600067ffffffffffffffff82111561205257612051612274565b5b601f19601f8301169050602081019050919050565b6000819050602082019050919050565b6000819050602082019050919050565b600081519050919050565b600081519050919050565b600081519050919050565b6000602082019050919050565b6000602082019050919050565b600082825260208201905092915050565b600082825260208201905092915050565b600082825260208201905092915050565b600082825260208201905092915050565b600081905092915050565b600061211c8261212f565b9050919050565b60008115159050919050565b600073ffffffffffffffffffffffffffffffffffffffff82169050919050565b6000819050919050565b82818337600083830152505050565b60005b8381101561218657808201518184015260208101905061216b565b83811115612195576000848401525b50505050565b600060028204905060018216806121b357607f821691505b602082108114156121c7576121c6612245565b5b50919050565b60006121d88261214f565b91507fffffffffffffffffffffffffffffffffffffffffffffffffffffffffffffffff82141561220b5761220a612216565b5b600182019050919050565b7f4e487b7100000000000000000000000000000000000000000000000000000000600052601160045260246000fd5b7f4e487b7100000000000000000000000000000000000000000000000000000000600052602260045260246000fd5b7f4e487b7100000000000000000000000000000000000000000000000000000000600052604160045260246000fd5b6000601f19601f8301169050919050565b6122bd81612111565b81146122c857600080fd5b50565b6122d48161214f565b81146122df57600080fd5b5056fea2646970667358221220cf88f47d447c1c6af36cae86ffbe038725b173c4545e4479700a1848c9989ea264736f6c63430008000033",
  "immutableReferences": {},
  "source": "// SPDX-License-Identifier: MIT\npragma solidity ^0.8.0;\n\ncontract Attendance {\n    address public admin;\n\n    constructor() {\n        admin = msg.sender;\n    }\n\n    // Role management\n    mapping(address => bool) public isTeacher;\n    mapping(address => bool) public isStudent;\n\n    // Class management\n    struct Class {\n        string name;\n        uint256 id;\n        address teacher;\n        bool isActive;\n    }\n    \n    uint256 public classCount = 0;\n    mapping(uint256 => Class) public classes;\n    mapping(address => uint256[]) public teacherClasses;\n    mapping(address => uint256[]) public studentClasses;\n\n    // Attendance management\n    struct Record {\n        uint256 date;\n        uint256 classId;\n        bool present;\n        string status; // 'present', 'absent', 'excused'\n    }\n\n    // Nested mapping: student -> classId -> records\n    mapping(address => mapping(uint256 => Record[])) public attendanceRecords;\n    \n    // Events\n    event TeacherAdded(address teacher);\n    event StudentRegistered(address student);\n    event ClassCreated(uint256 classId, string name, address teacher);\n    event AttendanceMarked(address student, uint256 classId, uint256 date, string status);\n\n    // Modifiers\n    modifier onlyAdmin() {\n        require(msg.sender == admin, \"Only admin can perform this action\");\n        _;\n    }\n\n    modifier onlyTeacher() {\n        require(isTeacher[msg.sender], \"Only teachers can perform this action\");\n        _;\n    }\n\n    modifier onlyTeacherOfClass(uint256 _classId) {\n        require(isTeacher[msg.sender], \"Only teachers can perform this action\");\n        require(classes[_classId].teacher == msg.sender, \"You are not the teacher of this class\");\n        _;\n    }\n\n    // Role management functions\n    function addTeacher(address _teacher) public onlyAdmin {\n        isTeacher[_teacher] = true;\n        emit TeacherAdded(_teacher);\n    }\n\n    function removeTeacher(address _teacher) public onlyAdmin {\n        isTeacher[_teacher] = false;\n    }\n\n    function registerStudent(address _student) public onlyAdmin {\n        isStudent[_student] = true;\n        emit StudentRegistered(_student);\n    }\n\n    // Class management functions\n    function createClass(string memory _name) public onlyTeacher returns (uint256) {\n        uint256 classId = classCount++;\n        classes[classId] = Class(_name, classId, msg.sender, true);\n        teacherClasses[msg.sender].push(classId);\n        emit ClassCreated(classId, _name, msg.sender);\n        return classId;\n    }\n\n    function enrollStudentInClass(address _student, uint256 _classId) public onlyTeacherOfClass(_classId) {\n        require(isStudent[_student], \"Address is not a registered student\");\n        studentClasses[_student].push(_classId);\n    }\n\n    // Attendance functions\n    function markAttendance(address _student, uint256 _classId, uint256 _date, string memory _status) public onlyTeacherOfClass(_classId) {\n        require(bytes(_status).length > 0, \"Status cannot be empty\");\n        require(isStudent[_student], \"Address is not a registered student\");\n\n        bool isPresent = keccak256(abi.encodePacked(_status)) == keccak256(abi.encodePacked(\"present\"));\n        \n        attendanceRecords[_student][_classId].push(\n            Record(_date, _classId, isPresent, _status)\n        );\n        \n        emit AttendanceMarked(_student, _classId, _date, _status);\n    }\n\n    // View functions\n    function getStudentAttendance(address _student, uint256 _classId) public view returns (Record[] memory) {\n        return attendanceRecords[_student][_classId];\n    }\n\n    function getTeacherClasses(address _teacher) public view returns (uint256[] memory) {\n        return teacherClasses[_teacher];\n    }\n\n    function getStudentClasses(address _student) public view returns (uint256[] memory) {\n        return studentClasses[_student];\n    }\n\n    function getClassInfo(uint256 _classId) public view returns (Class memory) {\n        return classes[_classId];\n    }\n}\n",
  "sourcePath": "/Users/abdallah/Desktop/attendence-dApp/contracts/Attendance.sol",
  "compiler": {
    "name": "solc",
    "version": "0.8.0+commit.c7dfd78e.Emscripten.clang"
  },
  "schemaVersion": "3.4.16",
  "updatedAt": "2025-05-04T22:57:54.172Z",
  "networkType": "ethereum",
  "devdoc": {
    "kind": "dev",
    "methods": {},
    "version": 1
  },
  "userdoc": {
    "kind": "user",
    "methods": {},
    "version": 1
  }
}